:020000040000fa
:080000000002040000000000f2
:020000040000fa
:040008004a030000a7
:020000040000fa
:04000c00c802000026
:020000040000fa
:040010000a030000df
:020000040000fa
:04001400e8020000fe
:020000040000fa
:040018002a030000b7
:020000040000fa
:04001c004a03000093
:020000040000fa
:040020004a0300008f
:020000040000fa
:040024004a0300008b
:020000040000fa
:040028004a03000087
:020000040000fa
:04002c004a03000083
:020000040000fa
:040030004a0300007f
:020000040000fa
:040034004a0300007b
:020000040000fa
:040038004a03000077
:020000040000fa
:04003c004a03000073
:020000040000fa
:040040004a0300006f
:020000040000fa
:040044004a0300006b
:020000040000fa
:040048004a03000067
:020000040000fa
:04004c004a03000063
:020000040000fa
:040050004a0300005f
:020000040000fa
:040054004a0300005b
:020000040000fa
:040058004a03000057
:020000040000fa
:04005c004a03000053
:020000040000fa
:040060004a0300004f
:020000040000fa
:040064004a0300004b
:020000040000fa
:040068004a03000047
:020000040000fa
:04006c004a03000043
:020000040000fa
:040070004a0300003f
:020000040000fa
:040074004a0300003b
:020000040000fa
:040078004a03000037
:020000040000fa
:04007c004a03000033
:020000040000fa
:040080004a0300002f
:020000040000fa
:040084004a0300002b
:020000040000fa
:040088004a03000027
:020000040000fa
:04008c004a03000023
:020000040000fa
:040090004a0300001f
:020000040000fa
:040094004a0300001b
:020000040000fa
:040098004a03000017
:020000040000fa
:04009c004a03000013
:020000040000fa
:0400a0004a0300000f
:020000040000fa
:0400a4004a0300000b
:020000040000fa
:0400a8004a03000007
:020000040000fa
:0400ac004a03000003
:020000040000fa
:0400b0004a030000ff
:020000040000fa
:0400b4004a030000fb
:020000040000fa
:0400b8004a030000f7
:020000040000fa
:0400bc004a030000f3
:020000040000fa
:0400c0004a030000ef
:020000040000fa
:0400c4004a030000eb
:020000040000fa
:0400c8004a030000e7
:020000040000fa
:0400cc004a030000e3
:020000040000fa
:0400d0004a030000df
:020000040000fa
:0400d4004a030000db
:020000040000fa
:0400d8004a030000d7
:020000040000fa
:0400dc004a030000d3
:020000040000fa
:0400e0004a030000cf
:020000040000fa
:0400e4004a030000cb
:020000040000fa
:0400e8004a030000c7
:020000040000fa
:0400ec004a030000c3
:020000040000fa
:0400f0004a030000bf
:020000040000fa
:0400f4004a030000bb
:020000040000fa
:0400f8004a030000b7
:020000040000fa
:0400fc004a030000b3
:020000040000fa
:040100004a030000ae
:020000040000fa
:040104004a030000aa
:020000040000fa
:040108004a030000a6
:020000040000fa
:04010c004a030000a2
:020000040000fa
:040110004a0300009e
:020000040000fa
:040114004a0300009a
:020000040000fa
:040118004a03000096
:020000040000fa
:04011c004a03000092
:020000040000fa
:040120004a0300008e
:020000040000fa
:040124004a0300008a
:020000040000fa
:040128004a03000086
:020000040000fa
:04012c004a03000082
:020000040000fa
:040130004a0300007e
:020000040000fa
:040134004a0300007a
:020000040000fa
:040208004a030000a5
:020000040000fa
:04020c00c802000024
:020000040000fa
:040210000a030000dd
:020000040000fa
:04021400e8020000fc
:020000040000fa
:040218002a030000b5
:020000040000fa
:04021c004a03000091
:020000040000fa
:040220004a0300008d
:020000040000fa
:040224004a03000089
:020000040000fa
:040228004a03000085
:020000040000fa
:04022c004a03000081
:020000040000fa
:040230004a0300007d
:020000040000fa
:040234004a03000079
:020000040000fa
:040238004a03000075
:020000040000fa
:04023c004a03000071
:020000040000fa
:040240004a0300006d
:020000040000fa
:040244004a03000069
:020000040000fa
:040248004a03000065
:020000040000fa
:04024c004a03000061
:020000040000fa
:040250004a0300005d
:020000040000fa
:040254004a03000059
:020000040000fa
:040258004a03000055
:020000040000fa
:04025c004a03000051
:020000040000fa
:040260004a0300004d
:020000040000fa
:040264004a03000049
:020000040000fa
:040268004a03000045
:020000040000fa
:04026c004a03000041
:020000040000fa
:040270004a0300003d
:020000040000fa
:040274004a03000039
:020000040000fa
:040278004a03000035
:020000040000fa
:04027c004a03000031
:020000040000fa
:040280004a0300002d
:020000040000fa
:040284004a03000029
:020000040000fa
:040288004a03000025
:020000040000fa
:04028c004a03000021
:020000040000fa
:040290004a0300001d
:020000040000fa
:040294004a03000019
:020000040000fa
:040298004a03000015
:020000040000fa
:04029c004a03000011
:020000040000fa
:0402a0004a0300000d
:020000040000fa
:0402a4004a03000009
:020000040000fa
:0402a8004a03000005
:020000040000fa
:0402ac004a03000001
:020000040000fa
:0402b0004a030000fd
:020000040000fa
:0402b4004a030000f9
:020000040000fa
:0402b8004a030000f5
:020000040000fa
:0402bc004a030000f1
:020000040000fa
:0402c0004a030000ed
:020000040000fa
:0402c4004a030000e9
:020000040000fa
:0402c8004a030000e5
:020000040000fa
:0402cc004a030000e1
:020000040000fa
:0402d0004a030000dd
:020000040000fa
:0402d4004a030000d9
:020000040000fa
:0402d8004a030000d5
:020000040000fa
:0402dc004a030000d1
:020000040000fa
:0402e0004a030000cd
:020000040000fa
:0402e4004a030000c9
:020000040000fa
:0402e8004a030000c5
:020000040000fa
:0402ec004a030000c1
:020000040000fa
:0402f0004a030000bd
:020000040000fa
:0402f4004a030000b9
:020000040000fa
:0402f8004a030000b5
:020000040000fa
:0402fc004a030000b1
:020000040000fa
:040300004a030000ac
:020000040000fa
:040304004a030000a8
:020000040000fa
:040308004a030000a4
:020000040000fa
:04030c004a030000a0
:020000040000fa
:040310004a0300009c
:020000040000fa
:040314004a03000098
:020000040000fa
:040318004a03000094
:020000040000fa
:04031c004a03000090
:020000040000fa
:040320004a0300008c
:020000040000fa
:040324004a03000088
:020000040000fa
:040328004a03000084
:020000040000fa
:04032c004a03000080
:020000040000fa
:040330004a0300007c
:020000040000fa
:040334004a03000078
:020000040000fa
:10040000ef8320000e7f22000e0188000000000014
:10041000000020000000e000020032000001200087
:1004200020028800140007009c0007000000e00084
:1004300003003a0020f421000100200002003700f0
:100440000000200001002000810f70000100320038
:1004500014000700000020000000e000020032004d
:100460000000020000000000ba1f020000000000af
:100470000040da000000fe004440a90040002000d7
:100480000000e0000300320000002000a00188000e
:100490004440a800000006008a1f78008b1f7800e7
:1004a0000000060091018800800478000000eb0045
:1004b0001a003700e284440032a0b4009905ba0063
:1004c000e284440032a0b4009906ba00e2844400f9
:1004d00032a0b4000006eb00476fde00fd07b2005b
:1004e000636ce10003003a00ebff07000000eb0043
:1004f0000a003700606ce10004003a00005deb0088
:100500008b05e900fdff3e00040037006168e10053
:10051000010032000086eb000b00070019c7ba008b
:100520001905ba000e04e00003003a000a00e000da
:10053000e0ff3a0000000600fe07b2009e018800be
:100540008a047800f5ff3700395dba008b05e900b1
:100550000c003200295dba008b05e900080032006a
:100560000c00e00003003a00e284440032a0b40032
:10057000f5ff370019ddba008b05e900faff3a00f4
:100580008904e800e184440032a0b40000000600c1
:100590003600f800809fbe00829fbe00849fbe0090
:1005a000869fbe000000fa008020a9000000eb003a
:1005b000640e07000080fa004f03be004f02be0029
:1005c0004f01be004f00be003600f900004006009b
:1005d0003600f800809fbe00829fbe00849fbe0050
:1005e000869fbe000000fa005b0e07008040a90055
:1005f00010002000530e07000080fa004f03be00d9
:100600004f02be004f01be004f00be003600f90091
:10061000004006003600f800809fbe00829fbe00aa
:10062000849fbe00869fbe000000fa008060a90083
:1006300020002000430e07000080fa004f03be0098
:100640004f02be004f01be004f00be003600f90051
:10065000004006003600f800809fbe00829fbe006a
:10066000849fbe00869fbe000000fa008080a90023
:1006700030002000330e07000080fa004f03be0058
:100680004f02be004f01be004f00be003600f90011
:10069000004006000040da000000fe0000000500f7
:1006a00014002000900337000001be002400070062
:1006b0000470a70003f0a1006509b1001600320024
:1006c0000d0035006828e10006003500f0ff2f001e
:1006d000f1ff27000300e00013003b0001002800a9
:1006e0000000050000004000818048008502e9000c
:1006f000fcff3a0008003700f88f420002003c007f
:100700008000eb00000005008100d1000080d300d4
:100710008502e800fcff3a000300e00002003b0015
:1007200060001000e0801800000006004f89de0025
:1007300082017800870337006011b8009503370005
:10074000c70ade00f107b200f50fb2000800320060
:10075000e1cf4200020032000170a0002400050039
:10076000810f7000010032000408050044000500fc
:10077000810f700002003a00140005008502e900b4
:100780000000400081c04800fcff3b000170a00059
:100790002400050007f82700078361000638e10000
:1007a00004003a00f7072000878361008703710087
:1007b00001003a0003f0a200889fbe008a9fbe009d
:1007c0008c9fbe00470ade000480a100c71ade002d
:1007d0000580a1000700280007856000878561006b
:1007e000f70f20000720e1009e0032000728e100fb
:1007f0009c003200010678000400e000b4003200e2
:10080000f7072000878060000170a0000500e0006d
:10081000c0003200f7072000878161000370a0004c
:10082000050652000f003a000b50e1000b003200a9
:100830000308e10002003a000200e1007e003200fd
:100840000204500083845800040031000001fd00c0
:100850008101fd008402fd008a05fd006044b800ae
:10086000210037000520e10005003d000001fd00ea
:100870008101fd008402fd008a05fd00050652008d
:100880007a60e100050035000170a1004722dd001b
:10089000848070008a807000630037006044b80074
:1008a000ef02660007ff2f00070666000500e00064
:1008b00006003400f08312008714dd000511de000d
:1008c000071bdd00060171008519de007060e10084
:1008d00005003500090478008204780003017800df
:1008e0008001eb00700656000b50e10003003a0057
:1008f00002004000838048000400370060041400b8
:10090000e0841c0002005800838058000188a30086
:10091000060032008100d1000080d3008984d3001a
:100920000884d3000402e800270037000178a30000
:1009300025003a000100e000030032008186cf006c
:10094000698656000a0037008c0020000000e00095
:1009500004003a0009007800880478000004eb00e5
:10096000700252008086cf000d0646000c06e9009a
:100970007060e10006003500800078000900780012
:10098000880478000004eb007006560070025200e4
:100990000c00e0000c0034008c08dd00f0031600b1
:1009a0000703de00868070000c00dd00074bde00d0
:1009b000060070008c4cdd000743de008684740066
:1009c0000c44dd000c0252006120e10020003500e3
:1009d000610160000700280087816400f7ff27009d
:1009e00087836400070374000300e0000600320000
:1009f00082037300040032000000e800e080480039
:100a00000188a3000e003a00f70f20000720e10044
:100a10004a003d000170a1004722dd008100720004
:100a20008a8070000000be004f06be004f05be0069
:100a30004f04be00000006006000b800faff370057
:100a40008100d1000080d3000402e800eeff3700ef
:100a50000401780089017400a10107008a807000f8
:100a6000f1ff3700f7010700070278000001fd00e1
:100a70008101fd00f3010700870278008503720001
:100a80000778a300040032000001fd008101fd0091
:100a900006020700e4ff3700850362000768a30031
:100aa000080032000b50e10003003200f0ff2f007d
:100ab000f1ff2700dcff37000001fd008101fd0090
:100ac000d9ff37000468a300d7ff3200faff3700d0
:100ad000f8ff2700888360000b003a000000e00068
:100ae00009003a008303640082837300020032002d
:100af0000200be00ccff37000b50e100ceff3a00f1
:100b00000200be00c8ff370014002000810064000e
:100b10003eff3700f8ff27008883610004003a0099
:100b20000200e00002003a008c007800beff3700af
:100b3000150020008301640039ff370001f8270009
:100b40000000200081007500b7ff3700889fbe00bd
:100b50008a9fbe008c9fbe001b0020000202be00c8
:100b60000586680006002800060666004709de00c4
:100b7000f20fb200820032000243e800800032002f
:100b8000c729de00f30fb2007d0032000343e80006
:100b90007b003200f107b2000170a000f507b2003f
:100ba0000570a000c708dd004903de0086807000e4
:100bb0004700dd00c72add004923de00868272007f
:100bc0004722dd00030551000403500085835800cf
:100bd0000300310000004000818048000a05e90060
:100be0008c1f78008a9fbe0004005000858058004a
:100bf0000402420085824a000000400081804800d3
:100c00000005eb000004be006033b8000406be001f
:100c10000d48e10056003100110009004dccd8000c
:100c20000c01b8000d02b8008481410060824a00c6
:100c30008283530003045c0084845c0060055d00d3
:100c40000a00e00025003a00800578000d40e10030
:100c50004900310088007800070078001100090081
:100c60004d88d8000c01b8000d02b8008481410005
:100c700060824a006003110083835b0004045c000f
:100c8000e0845c000900e00021003a004f01be0052
:100c90000300e0002b003200e30160000706730050
:100ca0008c81710001003200640070004200de009f
:100cb0004e5edd000c007000c258de0001e0a000b6
:100cc00083010700cf017800818071004f06be00cc
:100cd0004f05be004f04be00000006008c83430099
:100ce0000d044c00e0844c0060054d000000e9005c
:100cf0000a00e000d4ff32008c8343000d044c0056
:100d0000e0844c0060054d000000e900ceff370094
:100d10000c0343008d834b0060044c00e0844c00c6
:100d20000000e9000900e000d8ff32000c03430096
:100d30008d834b0060044c00e0844c000000e9000f
:100d4000d2ff37004200de004e5edd000c00700076
:100d5000c258de0001e0a000cf0178000300e000ef
:100d6000daff320060001000e0801800d7ff370083
:100d7000f0ff2f00aaff3700f0ff2f00b9ff370068
:100d80000404be002f010700870678000004fd0060
:100d90008104fd002b010700078366000678a3008d
:100da000030032000960a7000800be002c003700d5
:100db0000d78a300020032000800be0028003700b2
:100dc0000778a30026003a0001f0a10009f0a10075
:100dd0000668a30003003200f1ff2700f0ff2f0098
:100de000baff37000d68a300030032000800be0000
:100df0008c807000b5ff37000768a30007003a0039
:100e00000648a30003003200f1ff2700f0ff2f0087
:100e1000aeff37000d48a300030032006000b800a9
:100e20008c807000a9ff37000748a300040032003f
:100e300001f82700000020008c807000a3ff37001d
:100e4000760107000004fd008104fd000205780022
:100e5000720107000802be008a01780059ff3700be
:100e60000160a000120220001240880097ff3700a6
:100e70000100e000120032000500e0001000320026
:100e8000889fbe008a9fbe008c9fbe000006eb00bc
:100e900001f8a3000300320060001000e080180099
:100ea0000cf0a00005f8a30003003200600212005d
:100eb000e0821a000cf0a2008005eb0041ff370031
:100ec0006000b800020005000383680007002800e6
:100ed00007036300470ade000480a100c71ade0092
:100ee0000580a100f70f20000720e100420032003a
:100ef0000728e10040003200889fbe008a9fbe00a4
:100f00008c1f7800f107b200f307b2000400e00084
:100f1000640032000170a0000500e00068003200ab
:100f20000370a00085054200eb07b1000204b80081
:100f30000302b8008484440060854a00020ab800b5
:100f4000848444000a854a00030ab8000405450069
:100f5000040033000804d0008984d2000a85d2003e
:100f60008b05e9006158e1003d00350002102000ca
:100f7000090161000308200089816100f707200052
:100f80008783640008867300c84cde00c853dd0008
:100f9000878474004855de000300e000060032003c
:100fa00082037600040032008904e80060054d00e9
:100fb0000a88a3000c003a00f70f20000758e10050
:100fc00044003d000a70a100c75ddd000a85750080
:100fd0008a007300090078004f0678004f05be00b4
:100fe0004f04be00000006000a05d1008984d3002a
:100ff0008b05e800f0ff3700881f780006047800b2
:1010000090000700070278000001fd008101fd004b
:101010008c00070087027800850372000778a30020
:10102000050032000001fd008101fd009f00070066
:101030004f04780000000600850372000748a300f3
:1010400003003200f0ff2f00f1ff2700f8ff370008
:101050000000200001f8270088807000f4ff3700ae
:10106000880178004848dd00808171004848de0032
:10107000c850dd0001007000c850de000604780092
:101080000b0178001600070088807000d2ff37003f
:101090000500e00005003200170020003a000700bc
:1010a0009dff370081037000f9ff3a008600780049
:1010b0004f0678004f05be004f04be00000005003b
:1010c00083037100f9ff3200270020002e00070083
:1010d00094ff370001f8270086807000f4ff370086
:1010e0000100e00026003200610111007810e100eb
:1010f00023003c006022b8007010e10004003500bd
:1011000080027800010078008000eb00700151003f
:101110000200e0000900340070031100062add001f
:10112000822ade008603dd00878272000200de0074
:10113000860bdd00070070008208de0084817100ec
:10114000f4ff2700048262008481710004002800fb
:10115000848262006102600005f0a60000000600c3
:1011600004827100070032000000e800e0804800bf
:10117000000006000002be006000b800efff37006c
:101180006000b80000000600889fbe000004eb006d
:101190006138e10016003a000100e00008003a0062
:1011a000c800de004800dd00880020000100e000eb
:1011b00003003a00c800de004800dd006804440077
:1011c0008184cf00e9845400060034008908dd00e2
:1011d000f08314008703de00878070000900dd00c3
:1011e00009044400610214004f04be000000060020
:1011f0000300e00008003a00c811de004811dd00dd
:10120000880020000300e00003003a00c811de005f
:101210004811dd00680444008384cf00e984540051
:10122000060034008919dd00f08314008713de0006
:10123000878171000911dd0009044400e1021400f6
:10124000e9ff37002700200001f0a7001700200069
:10125000470bde00f60fb200040032000643e80040
:101260000a0032004702b3000000060001037800c4
:10127000f607b2000603700002003a000703b3004d
:10128000000006008702b30000000600010378009a
:10129000f607b20006037000020032000770a000db
:1012a000000006000760a000000006000478a3000c
:1012b000040032000578a300030032000168a30097
:1012c00001003a000200be000160a000000006001c
:1012d00081017000270032008002eb0001f8a300ba
:1012e0000300320060001000e080180015002000ac
:1012f000f40720000202420020003400f70320001f
:101300008703600006042000000363000208200039
:10131000000161004700de00c909dd0000807100a6
:10132000c708de000600e0000800320087037100f5
:10133000060032001000b0000180b0000188a30058
:1013400002003200c108de000402e800f107b2002a
:10135000f30f20000320e10003003d004722dd00e1
:10136000810072002900370001f827000000eb001f
:10137000260037006000b800000006006802120076
:101380007f20e100020034006000b8001f00370039
:101390006011b8007020e100040035008001780081
:1013a000010078008000eb00700252000400e000b1
:1013b00009003400f00312000719dd008419de0073
:1013c0000703dd00868171000400de00070bdd00ed
:1013d000060070008408de00f7ff270083836300a7
:1013e0008703710006002800030363000700320032
:1013f0000700e00003003a00610160000281730011
:10140000020032001000b0000180b0000500a6000c
:101410000000060001f0a000000006004f0ade00f8
:101420004709de00f107b200f20fb2000b003200f4
:10143000f207b1000170a000c708dd00c901de009d
:10144000838070004700dd000400a6000000060055
:1014500060001000e080180000000600810f70009e
:1014600001003a00000006008182cf000500e00084
:1014700010003e008082cf00ee8242007028e10022
:101480000400390007003e00800078000000eb00f7
:101490000e003700708312008600de000500dd00bc
:1014a0000a003700708352008600dd000000eb0068
:1014b00006003700e28252008508dd0070831200ca
:1014c0000603de00868070000500dd007507b000b1
:1014d0000501ea000400a6000000060060001000fc
:1014e000e080180000000600889fbe008a9fbe00b2
:1014f000841f78007c0007004f0078001100330043
:10150000f0ff2f00838f6c0006003b000405650090
:101510000a00a7000800370009f0a600100020000c
:1015200008003700820f5400838f5c0003003900ed
:101530001000200001003e000000200009f0a7007c
:101540000000ea004f05be004f04be000000e000ae
:1015500000000600881f7800030478000300e00004
:1015600007003d0060001000e080180060011900d5
:10157000e081190002003b0001f02d00030037005c
:101580000400070008f0a70001f0a0004f04780055
:1015900000000600889fbe008a9fbe000082700087
:1015a0000402710004827100260032000004be00b3
:1015b0000200be006011b8006b09200095022000f7
:1015c0000182cf000a0039000541b1000082cf003e
:1015d000070039000541b1000982cf00040039003d
:1015e0000541b1000882cf00010039000541b1007a
:1015f00005425200120032000a003b008281710055
:10160000610164008100d1000080d3008984d3008f
:101610000884d3008b05e8000442e800f7ff3a0095
:10162000070037000804440089844c00000048008b
:10163000818048008b05e9000442e900f9ff3a0087
:10164000030007004f05be004f04be000000060067
:1016500081002000618055000b003d000b00200040
:1016600061fe2f000100e1001d0034008281710045
:10167000610164008904d1000884d3000000e800ff
:10168000faff3a007100200061006400030070005e
:10169000020060000900320061044400e0844c0054
:1016a0000988a500050032008b05e8006808e10004
:1016b00002003a008904d1000884d300f20f200010
:1016c0000258e10005003d00c75ddd00f907b200ea
:1016d0008980750008007800000006000bf82700dc
:1016e0008b007800000005000004be0014fc070019
:1016f0000003be000405be000200be0010fc07008f
:10170000844f750000000600889fbe008a9fbe00bf
:101710000004be00b2362d00d3c02b00eafd070046
:10172000a23b2100f3d223001afc07000001be00f7
:101730000800be00e4fd070052a72a00a3e2230030
:101740001dfc07000001be000800be00defd070012
:101750000005be00e25a2e0043f32b000800be0035
:10176000d9fd07000200200003f8230012fc070047
:101770000001be000a00be00f4fc07004f05be00d9
:101780004f04be0000000600889fbe008a9fbe0076
:101790008c9fbe000004be000005be008b007800d8
:1017a00001f0a10008007800f2ff2f00f3f72300fa
:1017b000820f5000838f5800160036000200200070
:1017c00003f82300820f5000838f580007003a006f
:1017d000b2fd200093fc23000800be00bafd070004
:1017e00002002000033820002100370010022000f2
:1017f000e04188000801be000800be00e5fb0700cc
:101800000001be006000b800d0fc07000004be006c
:1018100038003700f2ff2f00f3ef2300820f500053
:10182000838f580014003e000200200003f82f00b0
:101830000000410081804900f2ff2f00f38f230058
:10184000820f5000838f58002a0036000801be0026
:101850000800be009cfd0700abff07000001be00b2
:101860000800be0098fd07000001be000800be0091
:10187000d1fb0700e5ff37000800be00220007008b
:101880000001be000000200001f82300c1fb07009a
:101890000200200003f023008bfd07000006be00bd
:1018a000280407000004be000c00be0096ff0700dd
:1018b0000001be000800be0083fd07000001be005d
:1018c0000800be00bcfb07000001be00bafb070019
:1018d0000001be00b0fd200091fc2300adfb07001d
:1018e0000004be00e00f5500e08f5d0001003d00e8
:1018f00009f0a2000800be004f06be004f05be0062
:101900004f04be00000006000001be008300780006
:1019100001f0a10002007800000006004f02b000b4
:10192000889fbe008a9fbe008c9fbe008e1f7800dd
:101930000005be000204be00b2af9f00c3af9f000f
:10194000b2b79f00c3b79f00cfae97000df0a100c4
:1019500002067800e00f5600e08f5e00c003320000
:10196000faaf9f008bb79f000000200001f8230012
:10197000800f5500818f5d00b90332008fb2970050
:1019800005f0a1007faa970094b79f00a5b79f001c
:101990000000200001f82700800f5200818f5a00bc
:1019a00003003c00800f5600818f5e00040034006d
:1019b0000a01be000800be007ffb0700af0337002e
:1019c0006033b8007fa997008fb19700e00f5100f6
:1019d000e08f590029003d0026002000070020006c
:1019e000f0ff2f00f1b72400800f5600818f5e00ba
:1019f00022003c006033b800f0ff2f00f1f7230015
:101a0000800f5600818f5e003300340047e8de000f
:101a1000cfe8de00f007b1000180b10077011000cf
:101a20000c00be00820178008301e900030033004e
:101a30008180d1000080d300fbff37000003be008f
:101a4000020778000e07e900030033000603430095
:101a500087834b00fbff37000601be006033b800f0
:101a60008c0f51008d8f59001b003a0061036000fc
:101a700062031300e0831b00170037000000200002
:101a800001f82700800f5600818f5e0012003a0097
:101a90000000200001f82300800f5200818f5a00bf
:101aa0006f033200060034003fb09700cfb09700bc
:101ab000e00f5000e08f580071033d006b033700ca
:101ac0003fb19700cfb19700e00f5100e08f590070
:101ad00066033d00690037000000200001f8230084
:101ae000800f5600818f5e0009003a003fb29700d8
:101af000cfb29700e00f5200e08f5a005d033d0027
:101b00000a01be000000200001f823005500370044
:101b100000002000010024003fb19700cfb19700e2
:101b2000800f5100818f590003003a000a01be0066
:101b30000a00be00480337000000200001f0230027
:101b40003fb19700cfb19700800f5100818f5900ae
:101b500008003a007fa897008fb09700e00f500070
:101b6000e08f5800030035000a00be00c8040700db
:101b7000420337000a00be00f4b79f0085bf9f00f4
:101b8000d6b79f00e7b79f005fff07000200200065
:101b900003f827007fb297008fba97005fb39700d2
:101ba000efb39700820f5200838f5a000800320073
:101bb000e00f5200e08f5a000500320002002000c2
:101bc00003f82300820f5200838f5a002d003a0041
:101bd0003fb19700cfb19700e00f5100e08f59005f
:101be0000c003d000001be000000200001f82300b1
:101bf000f4b79f0085bf9f00d6b79f00e7b79f004f
:101c0000d2fb07007fb297008fba97005fb39700af
:101c1000efb397007fa997008fb19700e00f5100b5
:101c2000e08f590015033d000200200003082c003e
:101c3000040241008582490004027300858273001a
:101c4000e00f5200e08f5a0008003a001202200014
:101c5000e24188000001be000200be00cdfa07008c
:101c60000001be00b9fb070004033700e10f530079
:101c7000e08f5b0001033a000004be0009f0a200ff
:101c8000ff0237007fa997008fb19700e00f510046
:101c9000e08f59000d003d00e00f5300e08f5b0026
:101ca00004003a0010022000e04188000a01be0052
:101cb000e9ff3700e10f5300e08f5b0008003200be
:101cc0000600200007f8230007003700020020006c
:101cd00003f82300f2af9f0083b79f000400370092
:101ce0000600200007f82b00f6af9f0087b79f0083
:101cf0000200200003d02400820f5600838f5e0074
:101d00005600340072ff2f00f3f72300820f5200b9
:101d1000838f5a0006003c003fb09700cfb0970079
:101d2000e00f5000e08f580004023d00e201370050
:101d30007200200003f82300820f5200838f5a00a4
:101d4000060034003fb19700cfb19700e00f51007b
:101d5000e08f5900d8013c00f80137000200200054
:101d600003f823008bfa07000005be0002a02a003a
:101d700083fb230054fc070090b79f00a1b79f008e
:101d800002572a00c36e23000a00be004efc070063
:101d90000002be000a01be000a00be00f4b79f00a8
:101da00085bf9f0048fc07000006be00020020001f
:101db00003e823000a00be0043fc07000001be0048
:101dc000b0aa2a00a1ea230072fa07000001be00af
:101dd0000a00be003cfc07000001be00000020001d
:101de00001f023006bfa07000001be000c00be00ea
:101df00035fc0700b2a32a0083fb230032fc070056
:101e00000001be007fb297008fba97000400be00a9
:101e100060fa07000005be000001be001fb0970079
:101e2000afb0970064fa07000001be00830078009d
:101e300004002f00020062000003be00b6b79f003e
:101e4000c7b79f001fb19700afb1970051fa0700c5
:101e50000001be000a00be00560137006011b80044
:101e6000f6ff2f00f7072000860f5200878f5a00d9
:101e700007003c000200200003b8240012fc070009
:101e800090b79f00a1b79f0082fe2f00f3ff2f00a5
:101e9000f207b1000380b1002fb2970047a0de0027
:101ea00084027800cfa8de0002034000838348004c
:101eb00096af9f00a7af9f0085007800f107b200a2
:101ec0001fb097000200200003f8230002027000f8
:101ed0008382700094b79f00a5b79f006033b8005d
:101ee000d6af9f00e7af9f0012472c00c301200030
:101ef000820f5000838f58001a0034001200200017
:101f000003002000d2af9f00e3af9f00623d2b0093
:101f1000d3052000820f5000838f58001100340039
:101f20001faa9700afaa970061024200e0824a0010
:101f300094af9f00a5af9f000000200001f82f0084
:101f40001fb39700afb39700060340008783480094
:101f500096b79f00a7b79f006000b800d0af9f0062
:101f6000e1af9f00dfa89700c208dd0081af9f00ae
:101f700040822000010040001005be000a01be00a2
:101f80001fb09700afb0970002fa07000006be002e
:101f90000a01be001fb09700afb0970006fa070015
:101fa0000001be000000200001f82300e7fa07004e
:101fb0000002be000001be000c00be00f4b79f008e
:101fc00085bf9f00c0fb07000003be000e002f006e
:101fd00081017800c3b79f0000016700b2b79f007e
:101fe0005fa89700efa89700c500dd000000200063
:101ff000d0af9f00e1af9f0000002000010420004f
:102000005fa99700efa99700020140008381480073
:10201000d2af9f00e3af9f001fb09700afb0970013
:102020008181d1000081d3008300780001d0a1001c
:102030000200670001d0a0005fa99700efa99700f8
:102040000201400083814800d2af9f00e3af9f00b0
:102050005fa99700efa997003fb09700cfb0970016
:10206000d6b79f00e7b79f0097fb07000001be00af
:102070000c00be00c7f907000006be000a01be0042
:102080005fa89700efa89700c2f907000001be0003
:102090001fb09700afb09700bef907000001be0067
:1020a0003fb09700cfb0970087fb07000001be004c
:1020b0000c00be00b7f907000001be007fb2970018
:1020c0008fba97000400be007ffb07000006be0029
:1020d0005fb39700efb397000601be000600be0095
:1020e00079fb07000005be000001be0076fb07007b
:1020f0000002be0022142f0033e523000a00be00b8
:10210000f4b79f0085bf9f006ffb07005225230097
:10211000c3e62300a8f907000001be000a00be00c4
:1021200069fb070052302a00b3e82300a2f9070038
:102130000001be000a00be0063fb0700b2aa2a002d
:10214000a3ea23009cf907000001be000a00be00bc
:102150005dfb070072db2600b3ed230096f9070054
:102160000001be000a00be0057fb0700a29929002b
:1021700093f1230090f907000001be007fb29700a1
:102180008fba97000400be004ffb07000005be0099
:102190005fb39700efb397000601be003fb0970012
:1021a000cfb0970084f907000001be000c00be000c
:1021b00045fb07000001be000a00be007ef90700d3
:1021c00090b79f00a1b79f003fb19700cfb1970094
:1021d0000200be003cfb07000005be00020020001c
:1021e0000304240074f907001fb19700afb19700f2
:1021f00071f9070081027800000267000401be0047
:102200003fb09700cfb09700f4b79f0085bf9f0005
:102210002dfb0700b0b79f00c1b79f007fb29700aa
:102220008fba97000401be000c00be0026fb070019
:102230000006be0002002000030424007fb29700c5
:102240008fba97000400be0052f907000a01be00d1
:1022500050f907000001be001fb09700afb0970013
:102260004cf907005fb39700efb397000601be007b
:1022700015fb07000001be000c00be004ef9070070
:102280000005be000001be003fb09700cfb0970030
:1022900049f907008102780000026700020024006b
:1022a00063f723000400be00f4b79f0085bf9f00c2
:1022b00005fb070090b79f00a1b79f00623c22007a
:1022c000638f2b007fb297008fba97000400be0087
:1022d000fdfa07000006be003fb19700cfb197009e
:1022e0007fb297008fba97000400be0029f907005b
:1022f0000001be000a00be0026f90700f284230098
:1023000063f72300f0fa07000001be000c00be00d6
:1023100029f90700c28220008fab97000701410016
:102320001201be0024f90700d0af9f00e1af9f006b
:102330001fa89700afa89700fcf807000006be0092
:10234000408320008fa99700030040001005be00c5
:102350005fa99700efa997001fb09700afb0970053
:1023600015f907000a01be0013f907000c01be00b1
:1023700011f907000001be00830078000200670029
:102380000002be00b4b79f00c5b79f000c01be009d
:1023900000f907000a01be00fef807001fb1970010
:1023a000afb19700fbf807000001be005fa89700df
:1023b000efa89700f7f807000005be00cfaa970026
:1023c00000002f00bfab9700070260000401be00b1
:1023d0000800be00f4b79f0085bf9f00edf807001e
:1023e0003fb19700cfb19700b7fa07000006be00d3
:1023f0000a01be000800be00b3fa07000001be00db
:102400000c00be00ecf807000004be003fb19700ce
:10241000cfb197007fb297008fba97000400be003b
:10242000a9fa07000005be00b0b79f00c1b79f0022
:102430000a01be000800be00dff807000006be006b
:102440000003be000000200001302400800f560071
:10245000818f5e0018003c00800f5600818f5e0067
:102460001d003a00c2a32a00833323000800be00e7
:10247000dcb79f00e7b79f00cff807000002be005f
:102480000a01be000c00be00f4b79f0085bf9f008c
:10249000c0f807000001be007fb297008fba970016
:1024a0000400be00230307005fb39700efb397005b
:1024b0000000e00029003400a22c2f009314270014
:1024c0007fa897008fb097007ffa0700a22c2f00fb
:1024d00093142700e00037008701780003f0a10083
:1024e0000c0178000000200061312400800f5100b1
:1024f000818f590011003c000000200061312c0048
:10250000800f5600818f5e0014003a000a01be0061
:102510000c00be00dcb79f00e7b79f009df80700e6
:102520000001be000800be005df807005fb3970021
:10253000efb397000000e00008003c0002262400f2
:1025400023da20007fa897008fb097005efa07007b
:102550000226240023da2000bf003700870178001c
:1025600003f0a100060178006022b80000002000fe
:1025700001f02300800f5100818f59003a00340090
:102580004798de0022f82f000001410000002000e3
:10259000010820000201e900030033008180d1001e
:1025a0000080d300fbff37000000430081804b0018
:1025b000010678008c01780003f0a100479ade0044
:1025c000cf9ade000401be00f207b1000380b10023
:1025d000b2b79f00c3b79f00f4ff2f00f50720009c
:1025e000bfb197008301e900030033008582d10069
:1025f0000482d300fbff37000482ea008582ea00f0
:102600008501660000016200fd0720008d02660062
:10261000000278000570a0003fb797007700170010
:102620000000e900030033008582d1000482d3005a
:10263000fbff3700e00f5300e08f5b0002003d001e
:1026400060021200e0821a000a00be00f4b79f0088
:1026500085bf9f004ff80700b0b79f00c1b79f002c
:102660008fba97007fb297003fb19700cfb1970024
:102670000800be00f4b79f0085bf9f004ef807001a
:102680008106780002002800000661000220270071
:1026900013f323000c00be000bfa07000005be0078
:1026a0003fb19700cfb197000c00be0039f807008a
:1026b0000001be000800be0036f807008221270096
:1026c00013f3230000fa07000004be00c2e82b0049
:1026d000f35b23000c00be00fbf907000001be0005
:1026e0000800be0034f807000006be000001be006e
:1026f0000a00be0030f807000004be000a01be0058
:1027000024f807000001be000c00be0021f80700fd
:10271000b0b79f00c1b79f000801be000800be000f
:10272000e9f907000005be00c2b42b0013332300f3
:10273000e5f90700e2a02e00d35d230015f807009d
:102740000001be000a00be00dff9070052352b0071
:10275000a388230018f807000001be000a00be008d
:10276000d9f9070012b6200063b3230009f8070067
:102770000001be000a00be00d3f90700b2aa2a0079
:10278000a3e223000cf807000001be000a00be000f
:10279000cdf907000001be000800be00fdf70700ec
:1027a0000005be000001be000800be00c6f907001b
:1027b0000006be0002002000030024000a00be0044
:1027c000f4f707000001be000c00be00dff80700b0
:1027d0000005be003fb19700cfb197000800be00d2
:1027e000b9f907000001be003fb09700cfb09700d5
:1027f000f1f707000001be000a00be00e5f7070080
:102800000801be00e3f707000001be000000200041
:1028100001f82300dff707007fb297008fba970017
:10282000c721dd0002002000020140008381480032
:10283000479bde00cf9bde00e00f5300e08f5b0084
:1028400003003c0004017800140007000001be00f2
:102850007fa897008fb097009bf90700070037000b
:102860000800200009f82300050037006044b80084
:10287000030037000a04be00010037000004be0058
:102880000800be004f0778004f06be004f05be008f
:102890004f04be004f02b10000000600889fbe003a
:1028a00002047800f9072000890f54000d0034005d
:1028b0000200200003f0270083f90700f807b100a9
:1028c000890f5400170034000200200003f0270095
:1028d0007df90700f807b100890f540010003c0093
:1028e0001000370029f82f00890f54000d003d001b
:1028f0000200200003c8200073f907006806b0003a
:10290000890f540007003d000200200003c820008a
:102910006df907006806b000890f540001003d0002
:1029200009047800f207200008014100cf91de0081
:10293000c711dd000200200063f907004f04be004c
:10294000000006002800fa00889fbe008a9fbe0093
:102950008c9fbe000004be00d70107000203be002a
:102960000002be00c0b79f00d1b79f00e2b79f0032
:10297000f3b79f000602be000600200007ff2700f5
:102980008786620006067800860f5600878f5e00f5
:1029900007003a000801be000800be004af907001f
:1029a0000001be000800be0083f7070031013700b8
:1029b0004fb39700dfb39700e00f5200e08f5a004b
:1029c00013003c008501780003f0a10004017800a9
:1029d0000601710087817100e00f5100e08f5900fe
:1029e00025013200e00f5200e08f5a00080032004b
:1029f00010022000e04188000801be000800be006f
:102a000064f707000001be0050f807001901370005
:102a100044a8de00cfa8de00e00f5000e08f580091
:102a20002e003a000800370075005000e080580082
:102a3000453cdd004b32de0004027400cb3ade0080
:102a4000c533dd0006002000e00f5200e08f5a0081
:102a5000f5ff32006011b8000400370004024200a4
:102a600085824a0061014100e081490008002000a0
:102a7000090120008585640008057800e00f5500f5
:102a8000e08f5d00f5ff320061004000e08048000b
:102a90000200500083805800080220000204540005
:102aa0000605be00080678000c06e90003003300a6
:102ab0008b05d1000a85d300fbff370004027500a7
:102ac00085827500820678008d06e90003003300d8
:102ad0000603430087834b00fbff3700f03fb10044
:102ae0000180b100ef816200040178000340a00082
:102af0000008a3000c00320002014100838149005c
:102b0000080020000900280087826400080278007d
:102b10004f2ade00050020000201420083814a00a6
:102b20000603430087834b008182d1000082d300db
:102b300084af9f0095af9f0002014100838149004f
:102b40000800200009002800878064000800780041
:102b50004f08de0001002000020140008381480090
:102b60000600430087804b006c0120000600200017
:102b7000070220006044b8006022b80088bf9f00b0
:102b800099bf9f00eca79f000405430085854b007b
:102b9000820f5500838f5d000a003c000a0243004b
:102ba0008b824b000a0151008b8159000fbe9700a8
:102bb0009fbe97000c0643008d864b008cbf9f0084
:102bc0009dbf9f000204410083844900c8b79f0055
:102bd000d9b79f000a0020000b00280081846500ff
:102be000b9b79f00aab79f002fb19700bfb1970058
:102bf0004f19de0003002000e2af9f00f3af9f00fb
:102c00004fb49700dfb49700080141008981490063
:102c100000004000818048008703d1000683d30074
:102c2000efa697008d06e900eda79f00d6ff3a00ba
:102c30000fbc97009fbc97006033b800a6b79f00f9
:102c4000b7b79f00cab79f00dbb79f000c022000f8
:102c5000e8a79f00f9a79f00e6af9f00f7af9f008e
:102c60004fb59700dfb597002fb39700bfb397001c
:102c70000a0443008b844b00820f5200838f5a005a
:102c80000400350034003a00800f5400818f5c004e
:102c900030003e004fb59700dfb5970008054500ae
:102ca00089854d00aab79f00bbb79f000a0020008e
:102cb0000b0028000983650096b79f008ab79f0024
:102cc0000fb397009fb397008a0f53008b8f5b0061
:102cd0000c003a00bfb3970087836500d7af9f0011
:102ce000c6af9f004fad9700dfad9700e00f5500d6
:102cf000e08f5d0003003a0061034200e0834a0078
:102d0000010037000403be00040151008581590011
:102d1000880f5000898f5800020031006101510076
:102d2000e081590008005000898058006faa970080
:102d3000ffaa97004fb49700dfb497000402440045
:102d400085824c00e4af9f00f5af9f000602be00f5
:102d5000010037000401be000201410083814900e7
:102d6000060020000700280081846300b9af9f009f
:102d700006057800aaaf9f002fac9700bfac970064
:102d80004f4bde00070020000201430083814b000f
:102d900000004000818048004fb59700dfb59700e4
:102da0008b05d1000a85d300cab79f00dbb79f000f
:102db0000c06e900aaff3a006fa49700ffa4970051
:102dc0006fab9700ffab970000017100818171002c
:102dd000e00f5100e08f59000b003200e10f43007b
:102de000e08f4b0004003a0061044400e0844c0092
:102df0006033b800040037006000b8006100630071
:102e00000003430081834b008985d1000885d300ee
:102e10008701d1000681d3000808a3000100320019
:102e200003f0a0000fae97009fae9700c460dd00d6
:102e3000000020000400200005fe230000004200e6
:102e400081804a000002450081824d004fabde00c8
:102e5000860378000403be006022b80004027100fb
:102e6000858271000603be000400be000601be009c
:102e7000b20007000004be000800be004f06be00fe
:102e80004f05be004f04be000080fa00000006009f
:102e9000889fbe008a9fbe008c9fbe000004be00bb
:102ea0000400200005f827008583600004037800f3
:102eb000840f5300858f5b0007003a000801be00b5
:102ec0000800be0000f807000001be000800be00b8
:102ed00039f6070010003700e00f5000e08f58006f
:102ee0000f003c008101780003f0a1000001780090
:102ef000e00f5100e08f59006a00320010022000fc
:102f0000e04188000801be000800be0021f607006d
:102f10000001be000df707000004be00610037008d
:102f2000478cde00cf8cde00e00f5400e08f5c00a9
:102f30000f003a006044b800040037000000400071
:102f40008180480061044400e0844c0004002000bb
:102f5000050820008181620004017800e00f510023
:102f6000e08f5900f5ff320061041400e0841c007a
:102f7000f807b1000980b10081017800f307b200c1
:102f8000000178000200be000170a0000808a30044
:102f90000200320000004000818048008984d10096
:102fa0000884d30000004000818048009401200084
:102fb00002002000031020006055b8006066b800d1
:102fc0000c0341008d834900800f5300818f5b000b
:102fd00006003c00060641008786490006005000b6
:102fe000878058000a0541008b8549000000400099
:102ff000818048008301d1000281d3000402e900ee
:10300000efff3a00e00f5000e08f58001b00320045
:103010000226240023da20000000200001f823000b
:10302000dcf507000200200003f823004100070040
:103030000000e000110035000226240023da200001
:103040000000200001f82300dbf50700020020004b
:1030500003f82300370007000000e00003003400fd
:1030600062054500e0854d00040037006000b800af
:10307000610065000005450081854d00c744dd0005
:10308000080020000000200001f023000804400098
:10309000898448008b85d1000a85d3000804450047
:1030a00089844d000800be004f06be004f05be00db
:1030b0004f04be000000060081037800a0f5070061
:1030c0000001be006000b8000478a30013003a00bd
:1030d0006220e10015003e000d0039008301d1009f
:1030e0000281d3008180d3008301d1000281d3000b
:1030f0008180d3008301d1000281d3008180d3007d
:103100000538b000c42add00f300b20083817200ec
:1031100007f0a70003f0a0000000060083ff2700cf
:10312000020020006110b900f9ff370003ff2700fb
:10313000f7ff3700f4ff2f00ebf837001400fa0018
:10314000889fbe008a9fbe008c9fbe000005be0007
:103150000206be00680047000c90be000a90be0048
:10316000210007006400e1001a00320016003e0052
:103170006100e1001a0032006e049000fe0490002d
:103180000e0b90009e0b90006011b8009e05900001
:103190000b38b100d501200082817100610164000b
:1031a0008703d1000683d3008984d3000884d30029
:1031b0008502e900f8ff3a0025f907000df0a700a5
:1031c00001f0a0004300370001fc270000002000b0
:1031d000faff370001f8270000002000f7ff370052
:1031e0006000b800f5ff3700800078005002be0094
:1031f0005003be004439de00f700b200f37f200028
:1032000003016100090032000218e10016003a00d3
:103210008501720083017300838173000008200020
:1032200015003a00400020001300370085017200ad
:10323000830173008381730005003a0004a8be0077
:1032400006a8be00100020000b0037000201e900b4
:103250000402420085824a0006034b0087834b002c
:103260000748a300f9ff32000740a00004a8be00f1
:1032700006a8be0020002000800098009200980060
:1032800000000600680447000294be000094be00df
:10329000fc0447008694be008494be0009007800b8
:1032a000d1ff070008007800cfff070099007800e1
:1032b000814f70000b003b000800be000a000700b1
:1032c0004f00b10003003700f3ff2700f2ff2f008b
:1032d0006110b9004f06be004f05be004f04be008e
:1032e0000080fa0000000600e48240001078a3008d
:1032f00007003200640240001178a3003400be00d1
:103300001401be00040032000330a70000000600d4
:103310003500be001501be000330a000000006000d
:020000040000fa
:08332000db0f00004940000032
:020000040000fa
:103328000600fa00000f78000e80e8000108780017
:103338006400470002087800640047001000780025
:103348000000ea001e0150000e80e800100078001e
:103358006a00b900000078008001780011000900b7
:103368000301d800cf80de00eef407000001be00a4
:10337800000020000112240066f907000200200066
:10338800832c2400cef607000080fa000000060017
:103398002800fa00889fbe0078044700000c7800d7
:1033a8007a004700010878007c004700020878008e
:1033b8007e00470003087800000220000e0040004d
:1033c80004087800200220000e004000050878005c
:1033d800400220000e0040000688be0000022000c7
:1033e8000e00400010007800cf80de00cdf407000a
:1033f800020020000300240046f907000004be0074
:103408007c00470010007800cf80de00c5f407007c
:1034180002002000030024003ef907000001be005e
:103428000800be00d9f407000004be000200200016
:1034380003002400400220000e0040001000be00df
:1034480034f907000001be000800be00d8f40700e8
:103458000004be00200220000e004000100078008a
:10346800cf80de00aff40700020020000300240034
:1034780028f907000001be000800be00ccf40700d0
:103488000004be007e00470010007800cf80de00f8
:10349800a4f4070002002000030024001df907001f
:1034a8000001be000800be00b8f407000004be001a
:1034b80002002000030024006a0057001000be002c
:1034c80014f907000001be000800be00aff40700b1
:1034d800008fbe00000220000e004000900078001f
:1034e8007c00470010007800008050000000400079
:1034f800cf80de008bf40700640147000089be001e
:10350800200220000e004000900078007e00470056
:103518001000780000805000cf80de0081f40700a2
:10352800680147000089be00020020000300240053
:10353800680047001000be00f6f8070002002000ef
:10354800030824005ef607000004be000200200005
:1035580003002400640047001000be00edf80700d7
:103568000001be0092f407000001be000800be0082
:1035780074f507000200200003f823008cf407000c
:103588006c0147000089be00680047000200200067
:10359800030824001000be0049f607000004be001e
:1035a8007c00470010007800cf80de005df4070043
:1035b8001e01be0075f407000001be000800be0031
:1035c8003ff60700640147001201be005df50700e1
:1035d8000004be007e004700100078000000400094
:1035e800cf80de004ff407000001be000800be00d7
:1035f80066f40700700147000089be000200200041
:10360800030024001e00be00c2f807000004be002c
:103618000200200003002400640047001000be00e0
:10362800bcf807000001be000800be0045f5070011
:103638000004be007c004700100078000000400035
:10364800cf80de0037f407001e01be001cf607001d
:10365800640147001201be003af507000001be00f0
:103668000800be0049f407000004be007e004700c1
:1036780010007800cf80de002af407000001be00a9
:103688000800be004af407000004be000200200043
:1036980003002400400220000e0040001000be007d
:1036a8009cf807000001be000800be0037f40700c0
:1036b800740147000089be000200200003002400b6
:1036c800700047001000be0092f807000004be001a
:1036d8006c00470002002000030824001000be0010
:1036e800f7f50700740147001201be00f4f5070062
:1036f8000001be000800be0024f40700e2fd070038
:10370800700147001201be0020f4070002002000eb
:10371800030024000bf507006c0147001201be00ee
:10372800e7f507007a014700120178000089be001a
:103738007a004700100078001000be0018c0b300df
:103748006011b800d4f307000000e0000100350064
:103758000044eb000804e0000c0032007a00470047
:10376800100078001000be00cdf3070000007800bc
:1037780000f0a7000000ea00cf80de00e9f30700b0
:103788007a014700120178000089be00020020007b
:1037980003002400400220000e0040001000be007c
:1037a8005cf807000004be007a00470010007800ab
:1037b8001000be00020020000300240055f8070096
:1037c8000001be000800be00f0f30700aefd0700d0
:1037d80078014700120178000089be004f04be003e
:1037e8000080fa00000006000800fa00889fbe006a
:1037f800000f78000e80e800010878006400470098
:103808000208780066004700030878006400470053
:10381800100078001e00100000f0a7000000ea0069
:10382800cf80de00bff30700020020000300240061
:1038380038f807000004be000e80e8009000780009
:1038480066004700100078000080500000f0a700d4
:103858000000ea00cf80de00b2f30700020020007b
:10386800030024002bf807000001be000800be007a
:10387800cff3070084fd07004f04be000080fa0064
:10388800000006000800fa00000f78000e80e8002b
:1038980001087800640047000288be000e80e80036
:1038a800100078001e001000cf80de009df3070096
:1038b800640147001201be00a2f40700b0f7070038
:1038c8000080fa00000006000c00fa00000f7800e3
:1038d8000e80e800010878006400470002087800bc
:1038e8006600470003087800680047000488be00a7
:1038f8000e80e800100078009e0f50000c00340085
:1039080066004700900078006400470010007800c7
:10391800808f50000600340080cc840091cc840055
:10392800680147001201be0098f307002000370025
:103938000e80e800100078009e0f500009003d003e
:103948006600470090007800640047001000780087
:10395800808f500003003400680047001000be004c
:10396800130037000e80e800100078009e0f50000a
:103978000a003d0066004700900078006400470098
:1039880010007800808f500004003d006800470058
:103998001000be0001f0a2000500370080cc8400b2
:1039a80091cc8400680147001201be0080f3070033
:1039b8000080fa00000006000000fa006000b8006d
:1039c8000080fa00000006000000fa0030302800ed
:1039d80000308800f03f20001030880010002000e0
:1039e800603088000080fa00000006000000fa003d
:1039f8000426ef00800320004030880010002000db
:103a0800bf000700c00020004030880010002000e0
:103a1800bb00070010002000403088002000200074
:103a2800b700070060002000403088002000200018
:103a3800b30007000080fa00000006000400fa0046
:103a48008e80e800800878000000000011308000b7
:103a580000002800008060000000e000fbff3a0042
:103a68000e80e80010007800203088004030800088
:103a7800000f7800000000001130800000002800ce
:103a8800008060000000e000fbff3a00403080004a
:103a9800004078000080fa00000006000400fa00e8
:103aa800000f78000e80e800014878000000000050
:103ab8000000eb00e1ff07000004e000fcff350018
:103ac8000000000011308000000028000080600025
:103ad8000000e000fbff3a001e007800203088005c
:103ae8000e80e800104078000000fb00403088009d
:103af8000080fa00000006000200fa00000f7800bb
:103b0800060037001e007800104078001e0fe800fd
:103b18008040780010002000e0ff07001e007800b9
:103b2800104078000004e000f6ff3a000080fa0038
:103b3800000006000400fa008e80e8008008780083
:103b48000e80e80010007800e10f500004003a00f1
:103b580021c0b3000000eb00d0ff070017003700ba
:103b68000e80e80010007800e20f500004003a00d0
:103b780001ccb3000000eb00c8ff07000f003700be
:103b8800c022ef0010002000000f78000800370066
:103b9800f00f20001016880040062000580007008b
:103ba800c222ef0040062000550007001e0fe80063
:103bb8001e007800f30f5000f5ff34000080fa0073
:103bc800000006000200fa00000f78001e007800ce
:103bd8002010880000000000401080007000600085
:103be8000000e000fcff3a000742a90007e2a80035
:103bf8000080fa00000006000000fa00a000200083
:103c0800320007000602a800000000003010800003
:103c1800610060000000e000fcff3a00a000200006
:103c28002a0007000080fa00000006000000fa00e1
:103c3800a0002000250007000642a80000000000a0
:103c480030108000640060000000e000fcff3a00d3
:103c5800a00020001d0007000080fa0000000600f8
:103c68000200fa00004f78000000000040108000b9
:103c7800610060000000e000fcff3a001e00fb004d
:103c880010108800a0002000100007000080fa0033
:103c9800000006000000fa000662a800000000000c
:103ca80040108000620060000000e000fcff32006d
:103cb8000682a800a0002000040007000010800071
:103cc800004078000080fa00000006000200fa00b8
:103cd800000f780000012800200888000021ef006c
:103ce800000000001e00780000004000010880006d
:103cf800810f5000fbff3e000080fa000000060024
:103d08000200fa00889fbe008a1f7800000f780022
:103d180000032800200888000021ef0000000000b0
:103d2800000880008000eb0081f207000004be005c
:103d38001e007800cf80de007af207000200200023
:103d4800a32724005ef407001ac0b3000001be00d8
:103d58000800be0050f207000000e0000100350036
:103d68000045eb000a04e000edff3a004f0578003b
:103d78004f04be000080fa00000006000000fa00b0
:103d8800c422ef00ca22ef00d022ef00d622ef00b3
:103d9800dc22ef00e222ef00e822ef00f06f2c00b7
:103da800001688000080eb0030168800e00127002c
:103db800601688000080eb0090168800f03f200015
:103dc800c0168800f01f2300f0168800f03c2f0072
:103dd800201788006820ef006a20ef00c026ef0057
:103de800c626ef00cc26ef00d226ef00d826ef003b
:103df800de26ef00e426ef00000c200060198800a2
:103e08000080fa00000006000000fa00d822ef0047
:103e18000080fa00000006000000fa00500d2000a3
:103e2800d01688000080fa00000006000000fa00a2
:103e3800900b2000d01688000080fa0000000600d1
:103e48000000fa00900d2000d01688000080fa00cb
:103e5800000006000000fa00500b2000d016880071
:103e68000080fa00000006000000fa0010002000a0
:0c3e7800d01688000080fa000000060050
:020000040000fa
:103e840004080000200000000000000000080000fa
:103e94000200000002000000ffff00000208000012
:103ea40002000000000000002408000018000000c8
:103eb40002000000000080003f000000c03f00003e
:103ec40000000000dccfd10035000000000000003d
:103ed400c0153f003c080000020000000000000084
:043ee40000000000da
:020000040000fa
:103ee8000000fa0000102300203a88004827ef005d
:103ef8007027ef007227ef007427ef0032002000d0
:103f080080072000a1092000337420008049780030
:103f180081497800824978000001eb0060042000a4
:103f280071052000237420008049780081497800b9
:103f3800824978000080fa00000006000200fa00ba
:103f4800000f78009e00780001408800ffff3700ce
:103f58000000fa004080200080077800c08120001f
:103f6800000188000080fa00000006000000fa0046
:103f78000500070000f02f0000168800f00f200051
:103f880010168800ffff37000000fa007bff0700cb
:103f9800d3ff0700020007000080fa0000000600b7
:0c3fa8000000fa000080fa000000060093
:020000040000fa
:020000040002f8
:04aff8009dfb0000bd
:020000040000fa
:020000040002f8
:04affc007f3f000093
:00000001FF
